:0300000002019466
:0100030032CA
:03000B0002010CE3
:0100130032BA
:01001B0032B2
:0100230032AA
:03002B000201359A
:10002E00C00078C40000D8FCD00022C000C0017906
:10003E002E78B4D8FED9FADAF6D001D00022D296B4
:10004E0012002EC29622A2E79286A2E69287A2E51F
:10005E009290A2E4929112004C12002EA2E392868C
:10006E00A2E29287A2E19290A2E0929112004C221B
:10007E00D2A0020054C2A0020054C296C297C0027F
:10008E007A28120039D002743312008374331200AE
:10009E008374321200837428120083740C1200834E
:1000AE007401120083C0027A02120039D00222E4D7
:1000BE0093600612007EA380F62244404480020024
:1000CE0083C0E0E8C4540F443012007EE8540F445D
:1000DE003012007ED0E0224243445F636F756E742F
:1000EE0065723A2078782000438E04E58954F044F6
:1000FE0001F589758CE8758A90D2A9D28C22C28CB2
:10010E00758CE8758A90D28CB2A132438E1075C868
:10011E000075CFA275CE4075CBA275CA40E4F530FE
:10012E00F531D2ADD2CA22C2CFC0E0C0D00530E583
:10013E003070020531E530B4F41EE531B40119D248
:10014E0000B28CD2A1E4F530F531E53230800424D2
:10015E000180022499D4F532D0D0D0E0327597DEEA
:10016E007597AD75E10075E20075E34075A60275F1
:10017E00A90075A900E5A930E7FB1200F6120119D6
:10018E00120088D2AF2275817F12016BC0E074011C
:10019E00141200CAD0E0C083C082C0E09000E51205
:1001AE0000BDD0E0D082D083D20075320020B71CC3
:1001BE00C0027A32120039D00220B71030B7FDC219
:1001CE00CAE4F530F531F532D2CA80033000DEC212
:1001DE0000C0E0740E141200CAD0E0C000A83212A3
:0701EE0000CFD0000201BBAD
:00000001FF
