:03000000020211E8
:0100030032CA
:03000B00020123CC
:0100130032BA
:01001B0032B2
:0100230032AA
:03002B0002014C83
:10002E00C00078C40000D8FCD00022C000C0017906
:10003E002E78B4D8FED9FADAF6D001D00022D296B4
:10004E0012002EC29622A2E79286A2E69287A2E51F
:10005E009290A2E4929112004C12002EA2E392868C
:10006E00A2E29287A2E19290A2E0929112004C221B
:10007E00D2A0020054C2A0020054C296C297C0027F
:10008E007A28120039D002743312008374331200AE
:10009E008374321200837428120083740C1200834E
:1000AE007401120083C0027A02120039D00222E4D7
:1000BE0093600612007EA380F62244404480020024
:1000CE0083C0E0E8C4540F443012007EE8540F445D
:1000DE003012007ED0E022414D00504D0030303ABB
:1000EE0030303A303020414D005365742054696DE4
:1000FE0065002020202020202020202000440043C6
:10010E008E04E58954F04401F589758CE8758A9062
:10011E00D2A9D28C22C28C758CE8758A90D28CB200
:10012E00A132438E1075C80075CFA275CE4075CB27
:10013E00A275CA40E4F530F531D2ADD2CA22C2CF93
:10014E00C0E0C0D00530E53070020531E530B401B5
:10015E0007E531B4000280030201E3D200B28CD273
:10016E00A1E4F530F531E53330800424018002241A
:10017E0099D4F533E533B4605C753300E53424016E
:10018E00D4F534E534B4604D753400E5352401D42E
:10019E00F535E535B41236D20120030E200218E5EE
:1001AE00362401F53675F0028016E53675F002A498
:1001BE002401D4F5368009E53675F002A4D4F5365F
:1001CE0075F00284D5F004D2038002D202E535B474
:1001DE001303753501D0D0D0E0327597DE7597AD2B
:1001EE0075E10075E20075E34075A60275A900750C
:1001FE00A900E5A930E7FB12010D120130120088AB
:10020E00D2AF2275817F1201E8C0E0740114120092
:10021E00CAD0E0C083C082C0E09000EB1200BDD017
:10022E00E0D082D083D2007535117534007533005D
:10023E00753601D20420A211C0027A32120039D0D2
:10024E000220A20530A2FD8003020409C2CAE4F511
:10025E0030F531F533F534753511C0E074071412ED
:10026E0000CAD0E0C000A8331200CFD000C0E074A6
:10027E0004141200CAD0E0C000A8341200CFD0007F
:10028E00C0E07401141200CAD0E0C000A8351200FC
:10029E00CFD000C0E07401141200C8D0E0C083C0FB
:1002AE0082C0E09000F71200BDD0E0D082D0832053
:1002BE0004092005028006D2028002D20320A53155
:1002CE00C0027A32120039D00220A52530A6FDE5F3
:1002DE00332401D4F533E533B46003753300C0E045
:1002EE007407141200CAD0E0C000A8331200CFD099
:1002FE000020A431C0027A32120039D00220A42587
:10030E0030A6FDE5342401D4F534E534B46003752C
:10031E003400C0E07404141200CAD0E0C000A83447
:10032E001200CFD00020A331C0027A32120039D091
:10033E000220A32530A6FDE5352401D4F535E5359B
:10034E00B41303753501C0E07401141200CAD0E075
:10035E00C000A8351200CFD00020033820020302BF
:10036E0003D420A62FC0027A32120039D00220A662
:10037E002330A6FDC0E0740A141200CAD0E0C08378
:10038E00C082C0E09000E51200BDD0E0D082D083E4
:10039E00C202D20320A62FC0027A32120039D00236
:1003AE0020A62330A6FDC0E0740A141200CAD0E0C5
:1003BE00C083C082C0E09000E81200BDD0E0D082C1
:1003CE00D083C203D20220A211C0027A32120039A7
:1003DE00D00220A20530A2FD80030202CBD2CAC0F9
:1003EE00E07401141200C8D0E0C083C082C0E09057
:1003FE0001001200BDD0E0D082D08320B71CC00215
:10040E007A32120039D00220B71030B7FDC2CAE4DA
:10041E00F530F531F533D2CA800830000280030280
:10042E000243C200C0E07407141200CAD0E0C0003C
:10043E00A8331200CFD000C0E07404141200CAD04A
:10044E00E0C000A8341200CFD000C0E07401141236
:10045E0000CAD0E0C000A8351200CFD000C0E074B2
:10046E000A141200CAD0E0200102803E2002212090
:10047E0003028036D205C204C203C083C082C0E02C
:10048E009000E81200BDD0E0D082D083C201801A65
:10049E00D204C205C202C201C083C082C0E0900075
:0D04AE00E51200BDD0E0D082D083020243F1
:00000001FF
